:060000000A128A11FC2F18
:100F1E000A128A1193270800831603130F088F39BC
:100F2E0060388F008F110F158F140F140800F0000A
:100F3E007008831203178D00831603178C130C147D
:100F4E00831203170C080800F100831603178C1880
:100F5E00AC2F7108831203178D0070088C00831656
:100F6E0003178C138312031303108B1B03148B13A1
:100F7E00831603170C1555308D00AA308D008C1476
:100F8E000C1183120313031C08008B170800F801C1
:100F9E000A128A118F270A128A114130F60076083A
:100FAE00F9005B3079020318FB2F7908F6007608FA
:100FBE00F00078080A128A11AB270A128A117808F3
:100FCE000A128A119E270A128A11F6007608F70075
:100FDE000130F6007608F8070130F6007608F907BA
:100FEE005B307902031CDC2FFB2F83010A128A115E
:020FFE00CE2FF4
:04400E00F4ECFFFFD0
:00000001FF
